:020000040800F2
:1000000000500020515C0008995C0008995C0008D1
:10001000995C0008995C0008995C000800000000E9
:10002000000000000000000000000000995C0008D3
:10003000995C000800000000995C0008995C0008C9
:10004000995C0008995C0008995C0008995C0008BC
:10005000995C0008995C0008995C0008995C0008AC
:10006000995C0008995C0008995C0008995C00089C
:10007000995C0008995C0008995C0008995C00088C
:10008000995C0008995C0008995C0008995C00087C
:10009000995C0008995C0008995C0008995C00086C
:1000A000995C0008995C0008995C0008995C00085C
:1000B000995C0008995C0008995C0008995C00084C
:1000C000995C0008995C0008995C0008995C00083C
:1000D000995C0008995C0008995C0008995C00082C
:1000E000995C0008995C0008995C00080000000019
:1000F0000000000000000000000000000000000000
:0C01000000000000000000005FF808F1A3
:100110000348044B834202D0034B03B11847704796
:1001200000020020000200200000000005480649EF
:100130000B1AD90F01EBA301491002D0034B03B1F5
:100140001847704700020020000200200000000055
:1001500010B5064C237843B9FFF7DAFF044B13B10F
:100160000448AFF300800123237010BD000200207B
:10017000000000007C66000808B5044B1BB1044970
:100180000448AFF30080BDE80840CFE7000000005E
:10019000040200207C660008A3F5803A704700BF87
:1001A000154B002B08BF114B9D46FFF7F5FF0021B3
:1001B0008B460F461148124A121A00F087F80C4B72
:1001C000002B00D098470B4B002B00D09847002005
:1001D000002104000D000B4800F020F800F052F858
:1001E0002000290005F024F900F01EF800000800A6
:1001F00000000000000000000000000000020020DD
:10020000C802002051020008A86A0008000000206F
:100210000002002000020020C80200200023014646
:100220001A46184600F092BE08B5074B044613B1B3
:10023000002100F0E3FE054B1868836A03B198477C
:10024000204605F0F3F800BFFD0F0008986600088F
:1002500038B50A4C0A4D641BA4100AD004F180433F
:10026000013B05EB8305013C55F804399847002C08
:10027000F9D1BDE8384006F009BA00BFA86A000805
:10028000A46A000870B50D4E0D4D761BB61006D051
:100290000024013455F8043B9847A642F9D1094E91
:1002A000094D06F0EDF9761BB61006D00024013496
:1002B00055F8043B9847A642F9D170BDA06A0008E2
:1002C000A06A0008A46A0008A06A0008F0B48607C3
:1002D00046D0541E002A3CD0CAB2034602E014F1B4
:1002E000FF3436D303F8012B9D07F8D1032C29D90D
:1002F000CDB245EA05250F2C45EA054533D9A4F1D1
:100300001006360903F1200707EB061703F1100268
:1003100042E9045542E902551032BA42F8D1721C42
:1003200014F00C0F03EB021204F00F0613D0331F6E
:1003300023F003030433134442F8045B9342FBD1DC
:1003400006F003042CB1C9B21C4403F8011B9C4203
:10035000FBD1F0BC704734461346002CF3D1F8E7CC
:1003600014460346C2E71A462646E0E7002B2DE96D
:10037000F0471E46BBBF03F100431E4600232D235A
:1003800088B0149CDDE9121A662C9046109D0B7003
:100390001AD0462C18D024F02003452B4FF0020130
:1003A000334635D007AFCDE9001506A9CDE90317CF
:1003B000CDF808A000F006FF672C074633D1119B4B
:1003C000DB0732D4079B1CE0032107AF009106A98D
:1003D0003346CDE903174246CDE9015A00F0F2FE5B
:1003E00007463B7800EB0509302B2BD0DAF800509C
:1003F0004D44404631460022002304F061FFB0B175
:100400002B463846159ADB1B136008B0BDE8F08711
:1004100007AF0091013506A9CDE90317CDE9015ACF
:1004200000F0D0FE0746472CC9D03D44E1E7079BCA
:100430009D42E6D930215A1C07921970079BAB42A6
:10044000F9D3DEE7404631460022002304F038FFAE
:100450000028CBD1C5F10105CAF80050C8E700BF9C
:100460000029F0B4B4BF2D232B230446B8BF494262
:10047000092904F8022B82B043702DDD0DF1070627
:1004800035461A4F01E01546194687FB0132CB1756
:10049000C3EBA20303EB8302A1EB420230326329D8
:1004A00005F8012C05F1FF32EDDC3033A91EDBB27B
:1004B0008E4202F8013C0BD9214601E012F8013BC3
:1004C000B24201F8013BF9D10DF109035D1B2C4447
:1004D000201A02B0F0BC70473023041D1944C170CB
:1004E0008370201A02B0F0BC704700BF6766666672
:1004F0002DE9F04F91B00C46DDF868B016461F4666
:10050000054601F043FF036818460A9300F0F0FC2B
:1005100000230E93DBF80030226807330B9009921A
:1005200023F00703D3F804A0D3F8008051464046D7
:10053000083394F81890CBF800302AF0004BC4E947
:1005400012014FF0FF325946B74B04F0EBFE48B9A9
:10055000404659464FF0FF32B34B04F0C5FE002829
:1005600000F08A80424640465346514604F0DAFE87
:10057000002840F04A82099B606843F48061431C74
:1005800032D0B9F1670F70D0B9F1470F6DD04FF08D
:10059000000C216042460DF1380E01910DF1340836
:1005A0000DF133010090CDE902185346CDF81090BB
:1005B000CDE905EC2846FFF7D9FE8046B9F1650F75
:1005C0000D9B39D8013B19464A4604F150000D9362
:1005D000FFF746FF0E9A82461318012A236140F363
:1005E0008C810133236139E0062060604FF0000CFC
:1005F000216042460DF1380E01910DF134080DF1E4
:10060000330153460090CDE90218CDF81090CDE9A2
:1006100005EC2846FFF7AAFE09F0DF03472B8046CA
:10062000CCD10D9BD91C80F2E580A9F102095FFABB
:1006300089F9B9F1650FC5D9B9F1660F00F0E1800C
:100640000E9A9A4240F3E880002BCCBF0121C3F1FF
:1006500002010A4422614FF0000AA3659DF833307D
:100660001BB32D2384F843301FE0002840F0158190
:10067000012318466360B9E7404651460022002333
:1006800004F028FE10B12D2384F84330099B674AFB
:1006900023F004032360664B0321B9F1470F94BF95
:1006A000904698464FF0000A2161009733460FAA02
:1006B0002146284600F0CAF9013024D023685805A5
:1006C0002CD44246236931462846B84701301AD017
:1006D000226892070F98E3681AD51A1A002A17DDC4
:1006E0004FF0000804F1190904E0E3680F981A1AA2
:1006F00042450DDD01234A4631462846B8470130C0
:1007000008F10108F1D14FF0FF3011B0BDE8F08FD2
:100710009842B8BF184611B0BDE8F08FB9F1650F27
:1007200033D9D4E912010022002304F0C9FD0028C6
:1007300000F0828001233F4A31462846B847013005
:10074000E1D0DDE90D239A4202DB2268D107C0D552
:10075000DDE90A2331462846B8470130D3D00E9B45
:10076000012BB5DD4FF0000804F11A0903E00E9BE0
:10077000013B4345ACDD01234A4631462846B84794
:10078000013008F10108F2D1BDE70E9A012A40F3C9
:10079000A0800123424631462846B8470130B2D0F6
:1007A000DDE90A2331462846B8470130ABD0D4E909
:1007B000120100220023DDF8389004F081FD0028AA
:1007C00000F09680B9F1010F40F38E804FF00008E1
:1007D00004F11A0904E00E9B013B434540F3848079
:1007E00001234A4631462846B847013008F101083E
:1007F000F1D188E7626893423FF717AF4FF067097E
:100800001EE7002B62687DDD2361002A00F0AB80CB
:1008100001321A4422611EE722682361D2077FF564
:100820001AAF5A1C226116E7FFFFEF7F54690008D8
:1008300058690008646900080D9B002B69DD0E9B58
:10084000D4F858A05345A8BF5346002B9B4608DD5B
:10085000424631462846B84701303FF454AFD4F8F9
:1008600058A02BEAEB7BAAEB0B03002B40F388800C
:1008700004F11A034FF000099A4604E0A36DA3EBBC
:100880000B024A457BDD0123524631462846B847D4
:10089000013009F10109F1D135E74FF0000C216079
:1008A00042460DF1380E01910DF134080DF133017E
:1008B000CDE9021853460090CDF81090CDE905EC33
:1008C0002846FFF753FD0D9B8046D91CFFF6ADAEC1
:1008D00090E7D9073FF55DAF4246012331462846F0
:1008E000B84701303FF40FAF534604F15002EAE637
:1008F00009F1FF3308F10102F0E72268D2077FF522
:10090000ADAE6EE6002A33D12168C90730D401228A
:10091000A0E601234A4A31462846B84701303FF451
:10092000F2AEDDE90D23134324D0DDE90A2331467D
:100930002846B84701303FF4E6AE0D9B002B7CDA29
:100940004FF0000904F11A0A03E00D9B5B424B458E
:1009500073DD0123524631462846B847013009F17C
:100960000109F2D1CFE62168C8077FF574AE4FE7E1
:1009700002326FE62268D3077FF5ABAED5E79A4621
:10098000DDE90D218A4202DB2368D80709D5DDE9BC
:100990000A2331462846B84701303FF4B4AEDDE9BA
:1009A0000D215245A1EB0203CCBF9946A1EB0A09E8
:1009B000B9F1000F0BDD08EB0A024B463146284621
:1009C000B84701303FF49FAEDDE90D239B1A29EAB9
:1009D000E979A3EB0903002B7FF77AAE4FF000080B
:1009E00004F11A0A07E0DDE90D239B1AA3EB0903C2
:1009F00043457FF76DAE0123524631462846B8473E
:100A0000013008F10108EED17DE6BAF1000FB8BF60
:100A10002D234FF00301B8BF84F84330099B094AE6
:100A200023F004032360084B2161B9F1470F94BF01
:100A3000904698464FF0000A37E642460E9B42E643
:100A4000646900085C690008606900082DE9F047E6
:100A50000C460969A56891468D42B8BF0D461560E0
:100A600094F8431006461F46DDF8208011B16A1C39
:100A7000C9F80020236899065CD5D9F80020023215
:100A8000C9F80020236813F0060F19461DD1E1684C
:100A90008A1A002AD8BF194617DD002504F1190A61
:100AA00005E0E368D9F800209B1AAB420CDD012376
:100AB000524639463046C047013005F10105F0D1B4
:100AC0004FF0FF30BDE8F087216894F843300033E1
:100AD00018BF01238A060AD53021E21882F8431094
:100AE00094F845105A1C224482F84310023304F152
:100AF000430239463046C0470130E1D02368A2683E
:100B000003F00603042B21691DD08A4226DD4FF035
:100B10000009521A914400251A3401E04D451DDAAE
:100B20000123224639463046C047013005F1010510
:100B3000F4D1C5E713F0060F13D094F84330003317
:100B400018BF0123D3E7D9F80000E3688A42A3EB7A
:100B5000000323EAE379DCDC002BDCDC0020BDE8C9
:100B6000F087E168D9F800208A1A002AD8BF194610
:100B700093DCAAE72DE9F0430C46097E85B06E2987
:100B800006461746984604F1430C0C986DD039D9A7
:100B9000732900F0F48044D9752900F00281782986
:100BA00040F00F8178232268DFF854E284F8453062
:100BB0000168150651F8043B016040F1A180D1079E
:100BC00044BF42F020022260002B00F093801022EC
:100BD000002184F8431060680028A060C0F2C6803D
:100BE000216821F004012160002B40F0A280002840
:100BF00040F0BE806546082A00F0AB80ACEB0503F0
:100C0000236141E0632900F0E3801AD8002938D03D
:100C1000582940F0D68084F845102268DFF8E4E1D6
:100C2000C6E76F2900F0BD80702940F0CA807823A4
:100C30002268DFF8CCE142F02002226084F84530DF
:100C4000B6E7642902D0692940F0BB8022680368B6
:100C5000110603F1040557D5196805600B460029F4
:100C600059DB0A22DFF89CE1B5E7036822681D1D05
:100C70006169056015061B6802D4500600F1BB804F
:100C80001960002365462361CDF800803B4603AA26
:100C900021463046FFF7DAFE013020D02A4623698C
:100CA00039463046C047013019D022680398920770
:100CB000E36819D51A1A002A16DD002504F119096E
:100CC00004E0E36803981A1AAA420DDD01234A469C
:100CD00039463046C047013005F10105F1D14FF0EA
:100CE000FF3005B0BDE8F0839842B8BF184605B0A4
:100CF000BDE8F0832168102221F02001216067E720
:100D0000500648BF9BB25AE75106A5D5B3F900304B
:100D100005601946A3E72D2061685B42002984F82D
:100D20004300A16002DB22F0040222600A22DFF805
:100D3000D4E0654600E00B46B3FBF2F102FB113054
:100D40001EF80000934205F8010DF4D2082A7FF442
:100D500055AF2368DB077FF551AF626823699A427C
:100D60003FF74CAF3023013D2B7047E7002BE0D11C
:100D70009EF8003004F1420584F842303BE70368F6
:100D80006268191D01601D680021284601F016FBEC
:100D9000002832D0401B60602061002384F843307B
:100DA00072E72268036812F0800F03F104051AD07D
:100DB0001B6805606F290CBF08220A22DFF844E097
:100DC00006E7012384F84210236104F14205E4E7B9
:100DD0000122036804F14205191D1B68016084F8B3
:100DE00042302261D9E712F0400F0DBF1B68056049
:100DF0001B880560DEE7198043E76068CCE700BF29
:100E00007C690008686900080EB430B5044682B0F9
:100E100008B1836963B106AD2B46059AA1682046E7
:100E2000019502F0ADFB02B0BDE8304003B0704761
:100E300001F03EFAEFE700BF0FB430B50B4B83B0C3
:100E40001C680CB1A36963B107AD2B46069AA16873
:100E50002046019502F094FB03B0BDE8304004B099
:100E60007047204601F024FAEEE700BF040000209E
:100E70000CB470B56FF000459CB020AC54F8042B56
:100E8000094E02910691234602A901940795CDE9E6
:100E9000045602F0F7F90022029B1A701CB0BDE85C
:100EA000704002B0704700BF0802FFFF0EB4034657
:100EB00030B56FF000449CB01FA951F8042B0A48CC
:100EC0000A4D0293069301910B46006802A907940C
:100ED000CDE9044502F0D6F90022029B1A701CB03D
:100EE000BDE8304003B07047040000200802FFFF57
:100EF00020F0030110F00300C0F1000051F8043BA2
:100F000000F1040C4FEACC0C6FF000021CBF22FA77
:100F10000CF213434FF0010C4CEA0C2C4CEA0C4C35
:100F2000A3EB0C0222EA030212EACC1204BF51F82E
:100F3000043B0430F4D0C2F1000102EA0102B2FA2B
:100F400082F2C2F11F0200EBD20070472DE9F0419E
:100F5000264C82B025680DB36C681F2C42DC984685
:100F6000064690B1D5F8880038B3D0F80031012793
:100F7000A74047EA030C022E00EB840340F824202C
:100F8000C0F800C1C3F8808011D00020631C023477
:100F90006B6045F8241002B0BDE8F081144E154D89
:100FA0002660EDB12C683546C6F88840D4E7D0F805
:100FB00004311F43C0F80471E7E70F4BCDE900127D
:100FC00083B14FF4847001F0E9F958B1DDE9001202
:100FD00000276C683B46C0E94077C5F88800C6E743
:100FE0003546B9E74FF0FF30D5E700BFA802002033
:100FF0001C020020000000009D2300082DE9F04F96
:101000000F464FF0010ADFF88C8083B0D8F800500B
:1010100001908DB16C68D5F88860013C0CD405F165
:10102000080B67B12EB106F1800353F82430BB42A0
:1010300005D014F1FF34F4D203B0BDE8F08F6B6833
:101040005BF82420013BA34216BF00236C604BF8E1
:101050002430002AEDD0D5F80490B6B1D6F80011AE
:101060000AFA04F30B4210D0D6F8040156F8241003
:1010700003420CD1019890476B68D8F800204B458B
:1010800001D1AA42D5D01546C3E79047F4E70846F8
:101090009047F1E7A80200202DE9F04F03690E699F
:1010A00083B0B342C0F28980013E01F1140500F122
:1010B000140955F8263059F8262001338246B0002D
:1010C000009005EB00089A424844B2FBF3F7019008
:1010D0003CD30022AE461446CC465EF8043BDCF816
:1010E00000001FFA83FB07FB0B221B0C4FEA124B7D
:1010F00007FB03BB93B2E31A82B21FFA8BF41344CB
:10110000C4EB104404EB23449BB243EA0443F04590
:101110004CF8043B4FEA24444FEA1B42DDD2009BCB
:1011200059F8033093B9019A131F99450CD252F81C
:10113000043C4BB9A2F1080302E01A68043B1AB957
:10114000994506F1FF36F8D3CAF81060504601F011
:10115000CFFC00282DDB48460023013755F8041B3F
:1011600004688AB29A1A0B0CA1B20A44C3EB144366
:1011700003EB224392B242EA0342A84540F8042B13
:101180004FEA2343EAD259F8262009EB860382B9B5
:101190001A1F91450BD253F8042C42B9083B02E0C8
:1011A0001A68043B1AB9994506F1FF36F8D3CAF814
:1011B0001060384603B0BDE8F08F002003B0BDE8F2
:1011C000F08F00BF2DE9F04F16461F46456A97B0D5
:1011D0000446CDE90267002D00F064832A6862B1FD
:1011E0004FF0010C6B6811460CFA03F5C2E90135AA
:1011F00001F0E0F90022636A1A603E1EB4BF0123C9
:101200000023239AB8BF26F000461360764BB8BF80
:101210000396B34300F0B080DDE90223104619467F
:1012200000220023CDE9080104F04AF8074678B10E
:101230000123229A1360249B002B00F04C836B4BFC
:10124000249A1360013B0493049817B0BDE8F08F13
:1012500014AA15ABCDE90032DDE9088920464246E3
:101260004B4601F073FD350D834640F09B80DDE970
:101270001485454405F23243202B40F3FC83C3F12F
:1012800040039E40029B05F2124023FA00F03043D7
:1012900003F034FD02460120013D0D90A1F1F873E9
:1012A000104619460022524B03F0EAFB48A3D3E94B
:1012B000002303F09DFD48A3D3E9002303F0E2FBE4
:1012C000064628460F4603F029FD45A3D3E900232F
:1012D00003F08EFD02460B463046394603F0D2FB42
:1012E00006460F4604F034F80022824600233046BA
:1012F000394603F0EFFF002840F0E082A8EB050537
:101300006B1EBAF1160F059300F2C182DDE90801E8
:10131000384B03EBCA03D3E9002303F0DBFF0028BB
:101320006ED000230C93059B0AF1FF3A002BC0F20C
:10133000B4824FF00009BAF1000F67DACAF1000376
:101340000B93209BA9EB0A09092BCDF818A0626A20
:101350004FF0000A64D8052B40F38B830025043B33
:101360002093209B023B032B00F27C86DFE813F0E6
:10137000A404A1047A04940442F20F73229AC6F3DF
:1013800013061360029B334319D1249B002B00F0FA
:101390007886194B04930833249A0498136017B085
:1013A000BDE8F08FC9F3130141F07F534246A5F227
:1013B000FF350D9743F44013DDF8508070E7249B10
:1013C000002B40F03D840D4B04933DE7AFF30080CC
:1013D00061436F63A787D23FB3C8608B288AC63F3B
:1013E000FB799F501344D33F0000F07F65690008EC
:1013F0000000F83F10670008906900089C69000829
:10140000059B0C90002BC0F248828146059B626AC6
:101410005344CDE9053A00230B93209B092B9AD91D
:1014200000230125209321934FF0FF330A95079362
:101430000021079B51601093204601F07BF8049037
:10144000002800F01786636A049A1A60079B0E2B27
:1014500000F23481002D00F031810699002940F31B
:101460008284AA4B01F00F0203EBC2030D11D3E9F2
:101470000023CDE90E23EA0640F14B84DDE90801A3
:10148000A34B0327D3E9082303F0DCFDCDE90201D8
:1014900005F00F057DB1DDE90E019D4EEB0704D58A
:1014A000D6E9002303F0A4FC01376D1006F108060D
:1014B000F4D1CDE90E01DDE90201DDE90E2303F0EF
:1014C000C1FDCDE902010C9B43B1DDE9020100221F
:1014D000904B03F0FFFE002840F04885384603F0AB
:1014E0001DFCDDE9022303F083FC8B4B002203F09B
:1014F000C9FAA1F15073CDE90E010F93079B002BA0
:1015000000F0BC80069B1293079B1193DDE90267F4
:101510003946304603F01CFF054603F0FFFB024648
:101520000B463046394603F0ABFA119A774B064624
:1015300003EBC2030F46DDE90E120A98CDE9021251
:1015400053E90223049930355FFA85F84D1C0028D1
:1015500000F09F840020714903F074FDDDE902234F
:1015600003F08EFA049B324683F800803B46CDE9B7
:10157000020103F0CDFE002840F0E68432463B46EF
:101580000020644903F07CFA02460B46DDE90201C3
:1015900003F0BEFE002840F05D85119B012B00F09A
:1015A0008980049ACDF844901344CDF84CA0CDF82E
:1015B00038B09946DDE902ABA0460FE032463B4623
:1015C0000020544903F05CFA52465B4603F082FE69
:1015D000002840F010854D4500F0168550465946CC
:1015E00000224F4B03F004FC00224D4B82468B46F9
:1015F0003046394603F0FCFB0F46064603F0A8FED2
:10160000044603F08BFB02460B463046394603F096
:1016100037FA3034E4B205F8014B52465B460646D1
:101620000F4603F057FE0028C8D04446129BDDF851
:1016300038B0013306935946204600F0BBFF002323
:101640002B70229B1A46069B1360249B002B3FF4B1
:10165000FBAD04981D6017B0BDE8F08F384603F06D
:101660005DFBDDE9022303F0C3FB2B4B002203F0FB
:1016700009FAA1F15073CDE90E010F930022DDE9C3
:101680000201284B03F0FCF9DDE90E783A464346A7
:1016900005460E4603F03CFE0746002840F0E38373
:1016A000DDE90E01024601F100432846314603F010
:1016B00011FE30BBDDE90823CDE90223159B002B89
:1016C000C0F2C780069A0E2A00F3C3800F4B03EBCB
:1016D000C203D3E9009A219B002B25DA079F002F34
:1016E00022DC40F0788400220E4B4846514603F03D
:1016F0007FFBDDE9022303F001FE002800F0B48344
:10170000079F3E46219B049DDB43F2E210670008E1
:10171000006800080000F03F00001C400000E03FAF
:101720000000244000001440DDE902674A465346A9
:101730003046394603F086FC03F00AFE804603F08B
:10174000EDFA4A46534603F053FB024630464646FE
:101750000B46394603F094F9049D3036069F05F890
:10176000016B079E0137012E02460B46069744D0B7
:101770000022C44B03F03CFB0022002306460F4628
:1017800003F09EFD00287FF456AFCDF808B04FF06F
:101790000108DDF81CB005940CE00022B94B03F001
:1017A00027FB0022002306460F4603F089FD002890
:1017B00040F050834A4653463046394603F042FCD7
:1017C00003F0C6FD044603F0A9FA4A46534603F067
:1017D0000FFB02460B463046394603F051F908F13B
:1017E000010804F13006C34502460B4605F8016BBB
:1017F000D3D1A046DDF808B0059C1046194603F089
:1018000041F94A46534606460F4603F081FD60B94A
:101810004A4653463046394603F052FD00283FF40D
:101820000AAF5FEAC8717FF506AF15F8018C6B1E31
:10183000049A04E09A4200F0BF8313F8018DB8F1D6
:10184000390F03F10105F5D008F10102D2B21A7087
:10185000F1E60A9A002A44D0209A012A40F37682BF
:10186000079B5F1E0B9BBB42C0F24D82DF1B079B99
:10187000002BC0F2F482059A4D4611461944059199
:1018800099440121204600F0B1FF06462CE00123D7
:101890000C93059B002BBFF64CAD0023C5F101094D
:1018A000059348E5102000F079FD6062002800F003
:1018B000EC83C0E901550560C5609EE4504603F025
:1018C0002DFA32463B4603F0FBFC00287FF416ADB0
:1018D0000AF1FF3A12E56C4B0493049817B0BDE887
:1018E000F08F4D460B9F0A9E002D0BDD059A002AB6
:1018F00008DDAA421346A8BF2B46A9EB0309ED1A3F
:10190000D31A05930B9BD3B10A9B002B00F0918156
:10191000002F10DD31463A46204601F023F85A46A2
:1019200001460646204600F077FF0346594620460A
:101930009B4600F03FFE0B9BDA1B40F07B810121B0
:10194000204600F053FFBAF1000F074600F39E80D7
:10195000209B012B40F37981002308930120BAF1E9
:10196000000F40F09F80059A104410F01F0079D0BE
:10197000C0F12003042B40F38E83C0F11C0002440D
:10198000814405440592B9F1000F05DD59464A46E8
:10199000204601F049F88346059B002B05DD3946BA
:1019A0001A46204601F040F807460C9B002B40F0F9
:1019B0002581079B002B40F30B810A9B002B40F0F5
:1019C0008780069B01330693049D4FF00108DDF8E4
:1019D0001C9008E0594600230A22204600F010FE21
:1019E000834608F1010839465846FFF755FBC145C3
:1019F00000F1300005F8010BECDC03464FF0000A63
:101A0000594601222046029301F00EF839468346DA
:101A100001F06EF8002815F8012C40F382816B1E4E
:101A2000049904E0994200F08A8113F8012D392AC3
:101A300003F10105F6D001321A703946204600F054
:101A4000B9FD002E3FF4F7ADBAF1000F05D0B24555
:101A500003D05146204600F0ADFD3146204600F04F
:101A6000A9FDE8E51C20059B81440344054405933A
:101A700089E7012575E4C3F12006029B03FA06F00D
:101A800006E400BF00002440646900080146524695
:101A9000204600F067FF209B0746012B40F38D8115
:101AA000002308933B6907EB8303186900F04EFE9F
:101AB000C0F1200057E7314600230A22204600F0FB
:101AC0009FFD109B0646002B40F3BB82CDE90683A9
:101AD000002D05DD31462A46204600F0A5FF0646CA
:101AE000089B002B40F09F81B1460499029B8846D9
:101AF00003F001024B1E20990B920A430A92079AA7
:101B00001A44089239465846FFF7C6FA3146029001
:101B1000584600F0EDFF4A4682463946204601F01D
:101B200003F8029BC26805463033002A42D10146C1
:101B30005846079300F0DCFF29460590204600F048
:101B400039FD059A079B1AB90A99002900F06582A8
:101B5000BAF1000F08F10105C0F24781209941EA6E
:101B60000A0A0B9951EA0A0100F03F81002A00F3AA
:101B70007D81089A88F80030424500F084815946FA
:101B800000230A22204600F03BFD4E4583463146A5
:101B90004FF000034FF00A02204613D000F030FD52
:101BA0004946064600230A22204600F029FDA846A1
:101BB0008146A7E701462046059300F0FBFC012281
:101BC000059BC5E700F01CFDA8460646814699E73F
:101BD000209B022B76DC0A9B002B7FF479AF3946E1
:101BE0005846FFF759FA069A049D00F13003013276
:101BF000069205F8013B4FF0000A01E739465846C6
:101C000000F076FF0028BFF6D4AE594600230A2222
:101C1000204600F0F5FC069B834603F1FF380A9B43
:101C2000002B7FF448AF109B002B40F303820793F7
:101C3000CAE60B9A5946204600F094FE83467EE69B
:101C4000B84B04930333FFF7A7BBDDE90212002969
:101C50007FF482AEC2F31303002B00F0B980029B25
:101C600008937BE601230A93219B002B54DD1E463B
:101C7000109307930021172E51607FF7DDAB0120F1
:101C800004235B0003F11407B742014600F1010091
:101C9000F7D95160FFF7D0BB01230A93219B069926
:101CA0000B4410930133012B1E460793B8BF012646
:101CB000E0E700230A93F1E700230A93D4E7109B9F
:101CC000CDE90683079B002B7FF41CAD3946052226
:101CD000204600F095FC01460746584600F008FFF4
:101CE00000287FF70FAD3122049D069B05F8012BDC
:101CF0000133013339462046069300F05BFC002E89
:101D00007FF4ABAE97E40B9B0B97FB1A9A4400272A
:101D1000ADE50227FFF7BEBB012321930793FFF731
:101D200087BB03D1029BDB073FF579AE6B1E01E059
:101D300013F8012D302A03F10105F9D07DE6312396
:101D4000069A01320692049A137076E60D9A002ADA
:101D500000F0FF80059A03F233431A444D46059282
:101D600099440B9F8DE500F0FE80DDE90801069B9C
:101D70005D426D4B05F00F0203EBC203D3E9002374
:101D800003F036F82D11CDE9020100F0EC800023BC
:101D90000227664EEA0705D5D6E9002303F028F8A6
:101DA00001231F446D1006F10806F3D1002B3FF408
:101DB0008AABCDE90201FFF786BB029B002B7FF4C3
:101DC0006FAEDDE90212C2F31303002B40F047812E
:101DD000574B1340002B00F0FC80059B09F10109D3
:101DE0000133059301230893B8E50699002A01F110
:101DF0000101069112DD594601222046059300F0AB
:101E000013FE3946834600F073FE0028059B40F31D
:101E1000EC80392B00F0D780029B3133B24688F832
:101E200000304E4609E67168204600F083FB054607
:101E3000002800F03581336906F10C0102339A0065
:101E40000C3000F001FB29460122204600F0ECFD99
:101E500081464AE6DDF808B0059CFFF7ECBB079B1E
:101E6000A9EB03050DE500273E463CE7069A392B12
:101E700002F10102069200F0A6800133B24688F812
:101E800000304E46D9E5069AB246013206924E46D9
:101E9000B6E5DDE9020102F0ABFF049BCDE90201EA
:101EA00083F80080119B012B22D0119B049ACDF85E
:101EB00038901344994600221E4B3046394602F0B2
:101EC00097FF0F46064603F043FA804602F026FFCE
:101ED00002460B463046394602F0D2FD08F1300882
:101EE00005F8018B4D4506460F46E4D1DDF83890E4
:101EF0000022DDE90201104B02F0C4FD32463B46F0
:101F000003F0E8F900286AD1DDE9022300200A493C
:101F100002F0B6FD32463B4603F0FAF900283FF4E2
:101F2000C9AB0CE09C690008106700080068000855
:101F30000000F07F000024400000E03F154615F847
:101F4000013C6A1E302BF9D0129B01330693FFF738
:101F500072BB149B059AC3F136031A444D46059291
:101F600099440B9F8DE40227FFF7ADBA079B002B26
:101F70003FF474AB109D002D7FF79CABDDE90201AF
:101F80000022514B02F034FFCDE90201781C02F02F
:101F9000C5FEDDE9022302F02BFF00224B4B02F0CD
:101FA00071FD069AA1F15073013ACDE90E0112922A
:101FB0000F931195FFF7AABA069A013206923122C1
:101FC0001A70FFF738BB3922B24688F800204E4617
:101FD00025E50893C2E400273E46FFF793BB129B1A
:101FE0000133069315F8018C21E47FF417AFDA076B
:101FF0007FF514AF0DE74346A0461C46129BDDF863
:1020000038B00133069312E4DDF84490DDF84CA0BB
:10201000DDF838B04446FFF74DBB069A392B02F184
:102020000102069208F10105CDD0BAF1000F3FF789
:10203000F3AEF3E6209B022B3FF741AECDF81880BC
:10204000CDE5209B022B3FF73AAE109BCDF81880D0
:1020500007933DE5129B01330693FFF7E8BB029B14
:1020600008931FE5002520465560294600F062FAD6
:102070000490E0B9164B00224FF4D571154801F0D9
:102080003FFD154B0493FFF7DFB80246134BEA21DF
:10209000104801F035FD3FF476ACC0F13C00E2E4BD
:1020A00002460B4B40F2EA210A4801F029FD4FF0AD
:1020B000FF331A4607931092636A049A21951A60B7
:1020C00001230A93FFF7FABA0000244000001C40E5
:1020D000EC690008B869000890690008A069000868
:1020E00000207047014900F027B900BF993C000863
:1020F0000020704770B568254A1E05FB02F50E46A4
:1021000005F1740100F07CFF044640B100210C3061
:10211000666005F168022160A060FEF7D7F82046EE
:1021200070BD00BF1E4B70B51D680646AB6943B35A
:102130004835D5E90134013B05D51EE0013B5A1C69
:1021400004F1680419D0B4F90C20002AF6D1002556
:10215000144B6566C4E90055A560C4E90455A56142
:102160002946E360082204F15C00FEF7AFF8C4E9F9
:102170000D55C4E91255204670BD2C682CB125467A
:10218000D7E7284600F010F8D2E704213046FFF7E1
:10219000B1FF044628600028F1D10C233360EAE740
:1021A000986600080100FFFF2DE9F84F0023334A2D
:1021B000C0E9123312680365904208BF0123304919
:1021C00008BF836181620546FFF7ACFF686028465F
:1021D000FFF7A8FFA86028460024FFF7A3FF042309
:1021E0006E68E8602146F3607466C6E90044B46036
:1021F000C6E90444B46106F15C000822FEF766F803
:10220000DFF888B0AF68DFF888A0DFF88890DFF8E3
:1022100088801C4BC6E9086BC6E90AA9C6F830805D
:102220002146FB6008227C66C7E90044BC60C7E920
:102230000444BC6107F15C00FEF748F8EE68124BFD
:10224000C7E9087BC7E90AA9C7F830802146F360CF
:102250007466C6E90044B460C6E90444B46106F19A
:102260005C000822FEF732F80123C6E9086BC6E9D4
:102270000AA9C6F83080AB61BDE8F88F98660008FF
:10228000E52000080900010012000200853800085E
:10229000AD380008ED3800080D390008024B03493D
:1022A000186800F049B800BF98660008993C00081B
:1022B000836903B978E77047704700BF704700BF74
:1022C000704700BF704700BF024B0349186800F019
:1022D0000FB800BF04000020E1200008024B0349B2
:1022E000186800F005B800BF04000020F1200008C5
:1022F0002DE9F04110F148071AD088460026D7E9A9
:102300000154013D0ED4A389013D012B06D9B4F936
:102310000E30013302D02046C04706436B1C04F147
:102320006804F0D13F68002FE9D13046BDE8F08164
:102330003E463046BDE8F0812DE9F84310F14806ED
:102340001ED0884607464FF00009D6E90154013DEA
:1023500010D4A389013D012B08D9B4F90E30013303
:1023600004D021463846C04749EA00096B1C04F1F5
:102370006804EED13668002EE7D14846BDE8F88300
:10238000B1464846BDE8F883F030704700487047D2
:102390005C010020004870475C010020024B0146B0
:1023A000186800F02DBE00BF04000020024B01465B
:1023B000186800F0D1BD00BF04000020830770B48E
:1023C000CDB23DD0541E0AB30378AB421FD0431C9C
:1023D00005E014F1FF3419D30278AA4217D013F0A4
:1023E000030F184603F10103F3D1032C11D84CB3AA
:1023F0000378AB420BD00444431C02E00278AA42AB
:1024000005D09C42184603F10103F7D1002070BCAF
:10241000704702460E02B6B22E4346EA06461368DD
:1024200010467340A3F1013121EA030313F0803F0A
:1024300002F10402DCD1043C032C1046EFD8D6E7AD
:102440001446D2E72046E2E7844641EA000313F04F
:10245000030349D1403A23D30B6803604B684360C0
:102460008B688360CB68C3600B6903614B69436110
:102470008B698361CB69C3610B6A03624B6A4362F8
:102480008B6A8362CB6AC3620B6B03634B6B4363E0
:102490008B6B8363CB6BC36340304031403ADBD2FC
:1024A00030320BD30B6803604B6843608B688360EA
:1024B000CB68C36010301031103AF3D20C3205D320
:1024C00051F8043B40F8043B043AF9D2043208D0F6
:1024D000D2071CBF11F8013B00F8013B01D30B8868
:1024E00003806046704700BF082A13D38B07B1D022
:1024F00010F00303AED0C3F10403D21ADB071CBFF4
:1025000011F8013B00F8013BA4D331F8023B20F85D
:10251000023B9FE7043AD9D3013A11F8013B00F896
:10252000013BF9D20B7803704B7843708B78837042
:102530006046704770B5446A06460D465CB1E36874
:10254000A3B153F82500E8B1026843F82520002321
:10255000C0E9033370BD1020FFF720FF044670620E
:10256000E8B10023C0E901330360C36021220421E4
:10257000304600F0E3FC736AE060DB68002BE0D1DA
:10258000002070BD012101FA05F4621D3046920061
:1025900000F0D4FC0028F3D0C0E90154D7E702468C
:1025A000024B6621024801F0ABFA00BFA0690008A7
:1025B000006A000830B5456A83B0044655B139B1A8
:1025C000636A4A68DB6853F82200086043F8221007
:1025D00003B030BD10200191FFF7E0FE0199606269
:1025E00020B1C0E901550560C560E8E70246024B2D
:1025F0008A21024801F084FAA0690008006A0008F4
:10260000F0B54FF0000C0C4605460E6983B001F1A1
:10261000140738680CF1010C81B202FB0133000C85
:10262000190C02FB00109BB203EB0043664547F810
:10263000043B4FEA1043ECDC3BB1A268B24207DD39
:1026400004EB8602013653612661204603B0F0BDDB
:102650006168284601310193FFF76CFF019B074633
:10266000A0B1226904F10C01023292000C300193F6
:10267000FFF7EAFE21463C462846FFF79BFF019BF9
:1026800004EB8602013653612661DEE70246024B07
:10269000B521024801F034FAEC690008006A00082C
:1026A0002DE9F8431D46264E083386FB0346092DC7
:1026B0004FEAE37390460746C3EB66020C46089E5A
:1026C00036DD012300215B009A4201F10101FADCB1
:1026D0003846FFF72FFF68B30123B8F1090FC0E9AF
:1026E000043613DC4FF009080A3445450CDDA5EB30
:1026F0000805254414F8013B0146303B0A223846C0
:10270000FFF77EFFA542F5D1BDE8F88304F1090982
:102710004E46444416F8013B0146303B0A223846F7
:10272000FFF76EFFB442F5D1A8F108044C44DCE792
:102730000021CDE70246034BCE21034801F0E0F92A
:10274000398EE338EC690008006A0008020C1204B4
:102750000346CAB90304102013F07F4F04BF1B02C5
:10276000083013F0704F04BF1B01043013F0404FCA
:1027700004BF9B000230002B05DB13F0804F00F1FB
:10278000010008BF202070470020E5E703680146EC
:1027900013F0070207D0DA0720D4980722D55B0888
:1027A0000B600120704798B2B0B910201B0C13F0D9
:1027B000FF0F04BF1B0A08301A0704BF1B090430AF
:1027C0009A0704BF9B080230DA0703D45B0800F1C4
:1027D000010005D00B6070471046E8E70020704705
:1027E000202070479B080B600220704710B50C46F4
:1027F0000121FFF79FFE024618B10123C0E904340E
:1028000010BD034B4FF4A071024801F079F900BFED
:10281000EC690008006A00082DE9F04F0E6917699D
:1028200083B0BE420C46154605DB3A462B4637467A
:102830000D4616461C46AB68696807EB060843451B
:10284000B8BF0131FFF776FE009000287FD0009BD3
:1028500003F1140A0AEB8809CA4505D25346002140
:1028600043F8041B9945FBD804F1140E0EEB860BBC
:1028700005F11403DE4503EB870753D2CDF804803E
:10288000984605E0090C28D1F3450AF1040A47D916
:102890005EF8041B8EB2002EF4D045465446002349
:1028A00055F8041B20688AB21FFA80FC06FB02C29E
:1028B000090C000C06FB0101134401EB13429BB20F
:1028C00043EA0243AF4244F8043B4FEA1243E7D8DD
:1028D00023605EF8041C090CD6D0DAF800304046BC
:1028E0001A4654464FF0000C0588120C01FB0522D5
:1028F0009BB2944443EA0C4344F8043B50F8043B35
:1029000022681B0C95B201FB0353874203EB1C4367
:102910004FEA134CE8D8F34523600AF1040AB7D80C
:10292000DDF80480B8F1000F0BDD59F8043CA9F183
:1029300004091BB105E059F8043D13B9B8F10108C9
:10294000F9D10098C0F8108003B0BDE8F08F0246BE
:10295000024B40F25D11024801F0D2F8EC69000828
:10296000006A00082DE9F04112F0030382B014461A
:1029700007462DD10E46A4101CD07A6A8AB39568FA
:10298000002D39D0E3074FF0000806D4641011D0B1
:10299000286898B10546E307F8D531462A463846F7
:1029A000FFF73AFF0346314638461E46FFF702FE60
:1029B0006410EDD1304602B0BDE8F0812A462946C8
:1029C0003846FFF729FF2860C0F800800546E2E797
:1029D000124A013B52F823200023FFF711FE06465E
:1029E000C9E71020FFF7DAFC0246786280B10023C5
:1029F000C0E901330360C36040F27121384601929F
:102A0000FFF7F4FE0023019A054690600360B9E7E2
:102A1000034B4FF4D771034801F072F800670008C8
:102A2000A0690008006A00082DE9F0470E694FEA26
:102A3000621A8B685644741C9C420D4691460746A8
:102A4000496804DD5B009C4201F10101FADC384673
:102A5000FFF770FD804600283FD0BAF1000F00F16B
:102A600014000EDD034600210AF1050A4FEA8A0A26
:102A700008EB0A0243F8041B9342FBD1AAF1140AA3
:102A80005044296905F1140319F01F0903EB810C67
:102A90001BD00022C9F1200E196801FA09F1114377
:102AA00040F8041B53F8042B9C4522FA0EF2F3D88D
:102AB000002A18BF264602603846C8F8106029462A
:102AC000FFF778FD4046BDE8F087043853F8042B43
:102AD0009C4540F8042FF9D8EEE70246024B40F23D
:102AE000D911024801F00CF8EC690008006A0008EE
:102AF00030B40B6905460069C01A10D19B0014352B
:102B0000143119442B4401E09D4208D253F8044D7E
:102B100051F8042D9442F7D003D24FF0FF3030BC6F
:102B20007047012030BC70472DE9F04716460F6909
:102B300012690D46BF1A002F6AD1920001F1140CE0
:102B400006F114010CEB0203114401E09C4562D232
:102B500053F8042D51F8044DA242F7D053D36968BD
:102B6000FFF7E8FC002860D0D5F810C033691435B1
:102B700006F11402C76005EB8C0E02EB830800F12E
:102B80001407002100E037463E4655F8049B52F8F2
:102B9000044B1FFA89F30B441FFA84FA210CA3EBB0
:102BA0000A03C1EB194101EB23419BB243EA014304
:102BB00090454FEA214146F8043B2C46E3D8AE4508
:102BC00016D9324654F8047BBBB20B44191401EBFE
:102BD00017419BB243EA0143A64542F8043B4FEA42
:102BE0002141EFD80EF1FF377F1B27F00307374451
:102BF0002BB957F8043D0CF1FF3C002BF9D0C0F87D
:102C000010C0BDE8F0872B46012735461E46A6E7D3
:102C1000F9DB0027A3E70021FFF78CFC60B101225C
:102C20000023C0E90423BDE8F0870246064B4FF4B9
:102C30001071064800F064FF0246034B40F2322157
:102C4000024800F05DFF00BFEC690008006A000860
:102C50000E4B0B40A3F15073002B02DD00201946F0
:102C600070475B421B15132B05DC4FF4002200203C
:102C700042FA03F17047143B1E2BD6BF4FF00042BF
:102C8000012322FA03F30021184670470000F07F69
:102C90002DE9F041076900F1140606EB870757F8A4
:102CA000048C4046FFF752FDC0F120030A280B6058
:102CB000A7F1040230DD9642A0F10B031DD257F8B4
:102CC000080C23B3C3F1200120FA01F208FA03F83B
:102CD00048EA0208A7F1080248F07F55964200FA38
:102CE00003F045F4401503D257F80C3CCB40184391
:102CF000044629462046BDE8F0813BB108FA03F3BB
:102D000043F07F5545F440150020F1E7184648F0A0
:102D10007F5545F44015EBE796422CBF002257F84B
:102D2000082CC0F10B0328FA03F138BFDA4000F198
:102D3000150341F07F5508FA03F345F4401543EAC3
:102D4000020420462946BDE8F08100BF70B501218C
:102D500082B016461C46FFF7EDFB054600284CD016
:102D60002346C4F30A54C3F313030CB143F4801392
:102D7000002E019322D068460096FFF707FD002839
:102D800037D0019BC0F12002009903FA02F20A43F6
:102D9000C34001936A61002B14BF02210121AB6182
:102DA0002961B4B1069BA4F2334404441C60079B20
:102DB000C0F135001860284602B070BD01A8FFF7C9
:102DC000E5FC0123019A19462030C5E90432002CA4
:102DD000E8D1069A05EB8103A0F232401060186931
:102DE000FFF7B4FC079BC0EB41101860284602B007
:102DF00070BDDDE900236A61CDE70246024B40F277
:102E00000A31024800F07CFEEC690008006A000804
:102E10002DE9F04383B00F4669460646FFF738FFB9
:102E200004460D46384601A9FFF732FF36693A6974
:102E30008946DDE90013B61ACB1A03EB4613002BC3
:102E400080460BDD05EB03573D4642464B46204688
:102E5000294602F0F7F803B0BDE8F083C3EB033373
:102E600009EB03518946F0E71728D0B504460ADD7F
:102E7000002000260749084F32463B4601F0B8FFC4
:102E8000013CF9D1D0BD054B03EBC004D4E90401EA
:102E9000D0BD00BF0000F03F0000244000670008E4
:102EA00070B414694E1E02F11403761103EB840111
:102EB00001368B4200EB86060CD2041F53F8045BEC
:102EC000994244F8045FF9D88B1A153B23F00303A9
:102ED00004331844864204D9002340F8043B864258
:102EE000FBD870BC704700BF03694A11934210B40D
:102EF00000F114040FDA04EB83039C421CD253F854
:102F0000040C043B18B114E053F8042D8AB99C4218
:102F1000FAD310BC704704EB8203EEDD11F01F0101
:102F2000EBD054F8220020FA01F202FA01F18842B3
:102F3000E3D0012010BC70470020EAE738B502FB5F
:102F400001F4214600F05CF8054618B12246002144
:102F5000FDF7BCF9284638BD00293AD038B551F8FC
:102F6000043C0C1F002BB8BFE418054601F0BCF967
:102F7000224B1A682AB1A2420DD9216860188242F8
:102F800021D0626028461C60BDE8384001F0AEB92F
:102F9000A34203D81A465368002BF9D11168501880
:102FA000A04217D022D821686018834203BFD3E91A
:102FB00000030918C4E90013636054602846BDE8A3
:102FC000384001F093B9D2E900020144C4E900128B
:102FD000D8E7704720680144501883421160EDD152
:102FE000D3E900030144C2E90013E7E70C232846B4
:102FF0002B60BDE8384001F079B900BFAC02002079
:10300000F8B5CD1C25F0030508350C2D38BF0C256F
:10301000002D064633DBA94231D82A4F01F064F96E
:103020003A6852B113685B1B04D43FE023685B1B12
:1030300029D522465468002CF8D1796800293BD064
:103040002946304600F00CFC431C28D0C41C24F058
:103050000304A04205D0211A304600F001FC0130E3
:103060001DD02560304601F041F904F10B0020F03D
:103070000700231DC21A01D01B1AA350F8BD0C2251
:1030800000203260F8BD0B2B05D8A242636811D036
:103090005360E7E7144623601C442560E2E70C23F5
:1030A0003046336001F022F90020F8BD0B2BF1D837
:1030B000144653683B60D5E7304600F0D1FB78609A
:1030C000BEE700BFAC0200202DE9F0478E688046C5
:1030D0009E420C461D461746086836D8B1F80CC00B
:1030E0001CF4906F0DD135462A46394601F096F80A
:1030F0000020A2682368961B2B44A6602360BDE8CD
:10310000F087D1E9041606EB460606EBD676A0EB6F
:103110000109013376104B44B342324684BF1E4648
:1031200032461CF4806F12D011464046FFF768FF0C
:10313000824600B34A462169FFF786F9A38923F442
:10314000906343F08003A38106E01E46CCE740462F
:1031500001F0CEF8824650B1A6EB09030AEB090054
:103160006661C4F810A02060A3602E46BCE7216908
:103170004046FFF7F1FE0C23C8F80030A3894FF05A
:10318000FF3043F04003A381B9E700BF2DE9F04FC2
:10319000936883B09046002B6DD0176882460C462A
:1031A000086808378D6843E0A38913F4906F2ED028
:1031B000D4E9041505EB4505A0EB010B05EBD5752E
:1031C0000BEB06006D100130A8422A4684BF05466D
:1031D0002A465B0536D511465046FFF711FF0028F9
:1031E0003AD05A4621690190FFF72EF9A289019B36
:1031F00022F4906242F08002A281A5EB0B0203EB65
:103200000B006561B346354623612060A2605A46D3
:10321000494601F003F8D8F80830A2682068551B29
:1032200058449E1BA5602060C8F808601EB308378C
:1032300057E90296AB46002EF9D0AE42B4D23546DD
:10324000B346E4E7504601F053F803460028D4D1D2
:1032500021695046FFF780FE0C2300224FF0FF301B
:10326000CAF80030A38943F04003A381C8E90122D2
:1032700003B0BDE8F08F0020C8F8040003B0BDE83B
:10328000F08F00BF2DE9F04F8B4689899FB00C0667
:103290009046029004D5DBF81020002A00F00D8142
:1032A000002020213022059398F8003001270B9050
:1032B0008DF831108C4E8DF83220002B00F0868076
:1032C000252B00F0F880454603E0252B00F0888090
:1032D00025466B786C1C002BF7D1B4EB080A75D02F
:1032E0004246534659460298FFF7EEFE01306DD034
:1032F0000B9B6A7853440B93002A67D000234FF04E
:10330000FF3201340693CDE908338DF85B301C930E
:10331000079206E02C46069B801B07FA00F0184334
:1033200006902546052215F8011B3046FFF746F8A2
:10333000AA460028EED1069BD90644BF20228DF86C
:103340005B201A0748BF2B22217848BF8DF85B20ED
:103350002A2949D1059A11680432002905927FDB98
:1033600009916178A51C2E2957D0604C0322204674
:10337000FFF724F8002869D04022069B001B02FAC0
:1033800000F00343069305F101082B780622194645
:1033900057488DF83030FFF711F8002866D0554BAC
:1033A000002B56D005AB00935A46534B06A9029802
:1033B000FDF79EF88146B9F1FF3F07D00B9B4B44C8
:1033C0000B9398F80030002B7FF47AAFBBF80C30E9
:1033D0005B064CBF4FF0FF300B981FB0BDE8F08F7D
:1033E000B4EB080A8AD07BE7A1F13002092A88BF32
:1033F000A246B8D8099B01E02C460135297803EB99
:10340000830302EB4303A1F13002092AAA46F3D950
:103410002E2904F102050993A7D19AF801102A294F
:103420002ED1059B0AF102001A680433002A079284
:1034300005939AF802100AF1030537DB2B4C8246FC
:1034400003222046FEF7BAFF002895D1A84655462C
:103450009BE7059B073323F0070308330593ADE78C
:10346000494243F00203099106937AE705AB0093C2
:103470005A46214B06A90298FDF77CFB81469AE744
:103480000023A1F13002092A079301D923E0554610
:10349000697803EB830302EB4303A1F13002092AAD
:1034A00005F1010AF3D9023507935EE74FF0FF33C8
:1034B0008246079359E7444620E740210393FFF7EC
:1034C0009FFD039BCBF80000CBF8100030B14022E9
:1034D000CBF81420E4E6AA46013546E70C23029A0D
:1034E0004FF0FF30136078E7346A00083C6A000848
:1034F000406A0008F1040008C93000089368013BE5
:10350000002B93600FDA10B49469A34208DB0A29F8
:1035100006D01368581C10601970084610BC70471C
:1035200010BC00F0F7B91368581C106019700846F9
:10353000704700BF9BB1F8B513440F4606465D1EA9
:10354000541E01E0AC4208D03A4614F8011F304640
:10355000FFF7D4FF431CF5D1F8BD0020F8BD0020D3
:10356000704700BF936810B5144613B953601846EE
:1035700010BD00F0F7FB0023C4E9013310BD00BF0C
:103580002DE9F04F9FB08B4690461C46039018B132
:103590008369002B00F0B980A34B9B4500F0BB80F2
:1035A000A24B9B4500F0C980A14B9B4504BF039BE8
:1035B000D3F80CB0BBF80C30180740F1B480DBF83E
:1035C0001030002B00F0AF803023002120228DF836
:1035D000323098F8003005940B918DF83120954EDB
:1035E0000127002B00F08980252B00F0178145462C
:1035F00003E0252B00F0A58025466B786C1C002B82
:10360000F7D1B4EB080A78D042465346594603989E
:10361000FFF790FF013070D00B9B6A7853440B93F7
:10362000002A6AD000234FF0FF3201340693CDE91F
:1036300008338DF85B301C93079206E02C46069BFE
:10364000801B07FA00F0184306902546052215F85E
:10365000011B3046FEF7B2FEAA460028EED1069BBB
:10366000D90644BF20228DF85B201A0748BF2B22C1
:10367000217848BF8DF85B202A2967D1059A116807
:10368000043200290592C0F29E8009916178A51C40
:103690002E2974D0684C03222046FEF78FFE0028A6
:1036A00000F087804022069B001B02FA00F00343D3
:1036B000069305F101082B78062219465F488DF81C
:1036C0003030FEF77BFE002800F083805C4B002B3F
:1036D00072D005AB00935A465A4B06A90398FCF7E3
:1036E00007FF8146B9F1FF3F07D00B9B4B440B937B
:1036F00098F80030002B7FF477AFBBF80C305B06F6
:1037000018D40B981FB0BDE8F08FFEF7D1FD464BE3
:103710009B457FF445AF039BD3F804B0BBF80C3056
:1037200018073FF54CAF5946039800F069F9002897
:103730003FF44AAF4FF0FF30E4E7039BD3F808B003
:1037400038E7B4EB080A3FF46DAF5DE7A1F1300252
:10375000092A88BFA2469BD8099B01E02C46013567
:10376000297803EB830302EB4303A1F13002092A1A
:10377000AA46F3D92E2904F1020509938AD19AF8B1
:1037800001102A292FD1059B0AF102001A6804337F
:10379000002A079205939AF802100AF1030538DB14
:1037A000254C824603222046FEF708FE00287FF4BF
:1037B00079AFA84655467EE7059B073323F00703FC
:1037C0000833059391E7494243F0020309910693B8
:1037D0005CE705AB00935A461A4B06A90398FDF720
:1037E000C9F981467EE70023A1F13002092A079337
:1037F00001D915E05546697803EB830302EB4303D7
:10380000A1F13002092A05F1010AF3D90235079323
:1038100040E74FF0FF33824607933BE7444601E71A
:10382000AA46013536E700BFDC660008BC66000822
:103830009C660008346A00083C6A0008406A000878
:10384000F10400083535000810B4044C13460A464C
:103850000146206810BCFFF793BE00BF04000020A3
:1038600038B50023064C05460846236001F0D0FD1C
:10387000431C00D038BD2368002BFBD02B6038BD23
:10388000C402002010B50C46B1F90E1000F056FD30
:10389000002803DB636D0344636510BDA38923F433
:1038A0008053A38110BD00BF002070472DE9F04177
:1038B000B1F90C409846E3050D461746B1F90E10D4
:1038C000064609D424F48054AC8143463A46304637
:1038D000BDE8F04100F07EB80223002200F0F0FBCA
:1038E000B5F90C40B5F90E10ECE700BF10B50C4669
:1038F000B1F90E1000F0E4FBA389421C0EBF23F4C3
:10390000805343F480536065A38110BDB1F90E105C
:1039100000F01AB9F8B50D461446064608B1836999
:1039200043B3254B9C422AD0244B9C4229D0244BA4
:103930009C4208BFF468A269A389A2601A0722D535
:10394000236903B322686169D31AEDB299422F4605
:1039500029DD0133A168501C0139A1602060157078
:1039600062699A4216D0A389DB0701D50A2D11D0CE
:103970003846F8BDFEF79CFC0F4B9C42D4D17468CE
:10398000D9E7B468D7E72146304600F039F838B9AE
:103990002369D7E72146304600F07EF90028E7D0BA
:1039A0004FF0FF37E4E72146304600F075F9002874
:1039B000F6D101232268CDE7DC660008BC6600086A
:1039C0009C660008024B0A4601461868FFF7A2BF32
:1039D00004000020F8B50E460025084C11460746A5
:1039E0001A463046256002F061FD431C00D0F8BD48
:1039F0002368002BFBD03B60F8BD00BFC402002051
:103A00003B4B70B51D6806460C460DB1AB69DBB18A
:103A1000384B9C421ED0384B9C424AD0374B9C427C
:103A200008BFEC68B4F90C2093B2190718D52069C7
:103A300008B313F001022CD000226369A2605B423C
:103A4000A36160B3002070BD2846FEF731FC294B0E
:103A50009C42E0D16C68B4F90C2093B21907E6D40B
:103A6000DD063CD5580726D4206942F00803A3811F
:103A70009BB20028DDD103F42072B2F5007FD8D0CC
:103A80003046214600F060FBA389206913F0010253
:103A9000D2D1990758BF6269A2600028D2D1B4F987
:103AA0000C301A06CFD543F04003A3814FF0FF300E
:103AB00070BDAC68B6E7616B51B104F14403994243
:103AC00004D03046FFF748FAB4F90C2000236363B2
:103AD0000023206922F02402C4E90003C5E709237A
:103AE00042F0400233604FF0FF30A28170BD00BF52
:103AF00004000020DC660008BC6600089C66000824
:103B000000B50A4C0546206885B01C46C06852B115
:103B1000074BCDE9013200912B462246054900F0C2
:103B20000DF900F08BFD044B1A46F2E7040000206B
:103B3000486A0008586A0008546A000808B5134625
:103B40000022FFF7DDFF00BF38B50023064C054615
:103B50000846236001F024FC431C00D038BD2368D4
:103B6000002BFBD02B6038BDC40200202DE9F041B2
:103B70008F890C463A07804641D44B68002B59DDAB
:103B8000E66A002E53D0002317F48052D8F8005074
:103B9000216AC8F8003051D101234046B047431C88
:103BA0005FD0A789E66A216A7F0705D56268636BE3
:103BB000801A0BB1236CC01A024600234046B0475E
:103BC000461C45D1D8F80030B4F90C20002B55D054
:103BD0001D2B01D0162B5AD100222369C4E90032D3
:103BE000616BC8F8005011B304F14403994202D04C
:103BF0004046FFF7B1F900206063BDE8F0810E692F
:103C0000AEB10D680E60B90714BF00236369AD1B28
:103C1000A3600AE02B463246A76A216A4046B847AD
:103C20000028A5EB000506440ADD002DF2DC00208B
:103C3000BDE8F0810B6C002BA2DCF8E7606DB3E708
:103C4000A3894FF0FF3043F04003A381BDE8F0812A
:103C5000002322696360A3892260DA04C0D560650D
:103C6000BEE7D8F80030002B9BD01D2B0CD0162BB4
:103C70000AD0A38943F04003A381D9E72169C4E9AD
:103C80000013D304ACD5EAE7C8F80050CFE742F000
:103C90004002A281CCE700BF0B6923B310B50446F4
:103CA00082B008B18369BBB1104B994212D0104B5E
:103CB000994216D00F4B994208BFE168B1F90C3018
:103CC0002BB1204602B0BDE81040FFF74FBF0020E7
:103CD00002B010BD6168F1E70191FEF7E9FA0199C0
:103CE000E2E7A168EAE70020704700BFDC66000851
:103CF000BC6600089C66000820B1054B01461868A8
:103D0000FFF7CABF034B04491868FEF715BB00BF95
:103D10000400002098660008993C00080CB410B517
:103D200082B004AC54F8042B23460194FFF728FC1E
:103D300002B0BDE8104002B0704700BF0EB430B50D
:103D400082B005AC54F8042B054D01462346286883
:103D50000194FFF715FC02B0BDE8304003B0704796
:103D6000040000209368002B00F0FC802DE9F04F48
:103D7000B1F90C300C469BB2190783B082469046CD
:103D80002BD522694AB313F00202D8F8006033D071
:103D900000273D46D4F828B0216ADFF8C492C5B1A7
:103DA0004D452B463A4628BF4B465046D84700283B
:103DB00040F3CE80D8F8083007441B1A2D1AC8F8F3
:103DC0000830002B00F0B380D4F828B0216A002D11
:103DD000E6D1D6E900750836E1E721465046FFF7FF
:103DE0000FFE002840F03781B4F90C30D8F800609D
:103DF0009BB213F00202CBD113F0010940F0B48062
:103E00004D46A7682068002D55D09A0540F1C08026
:103E1000AF42BB4600F2EE8013F4906F2FD0D4E98E
:103E2000041707EB4707A0EB010B07EBD777681CDC
:103E30007F105844B8423A4684BF07463A465B056D
:103E400040F1F08011465046FFF7DAF8002800F004
:103E5000FC805A4621690190FEF7F6FAA289019B7F
:103E600022F4906242F08002A281A7EB0B0203EBE6
:103E70000B006761AB462F4623612060A2605A4663
:103E8000494600F0CBF92368A2685B44AB460025A5
:103E9000D71BA7602360D8F80870D944A7EB0B079D
:103EA000C8F80870002F42D0B4F90C30A7689BB254
:103EB0002068002DA9D1D6E900950836A3E70BF1BB
:103EC000080353F8047C9B4653F8086C0833002F12
:103ED000F7D03A460A213046FEF770FA002854D04F
:103EE0000130A0EB06094B4620682169BB4228BF80
:103EF0003B468842626903D9A5681544AB421ADC87
:103F00009A4200F381801346A56A3246216A5046E0
:103F1000A847051E1CDDB9EB05096ED00120D8F8B5
:103F200008302E445B1B7F1BC8F8083013BB0020F1
:103F300003B0BDE8F08F31462A4600F06FF92368E0
:103F400021462B4423605046FFF7A6FE0028E2D00E
:103F5000B4F90C304FF0FF3043F04003A38103B0BD
:103F6000BDE8F08F00207047334691461046174653
:103F70004E469B46002FA2D00028B4D13A460A21D3
:103F80003046FEF71BFA0028AAD17B1C9946ABE706
:103F90002369834217D36269AA4214D82F4BA76AB8
:103FA0009D4294BF2B466FF0004393FBF2F3216ACE
:103FB00002FB03F350464A46B847B0F1000BC7DD99
:103FC000A5EB0B0567E7AF4228BF2F4649463A46A7
:103FD00000F024F9A3682268DB1B3A44BB46A360C7
:103FE0002260002BECD121465046FFF755FE0028F9
:103FF000E6D0ADE72F46AB4641E721465046FFF7F6
:104000004BFE00288BD0A3E71A4631461D4601938C
:1040100000F004F9A1682268019BC91A1344A16049
:10402000236078E7504600F063F9034600287FF4E8
:104030001CAF21695046FEF78FFF0C22B4F90C30FB
:10404000CAF8002023F0800384E70C22B4F90C3076
:10405000CAF800207EE74FF0FF3069E7FEFFFF7FE0
:1040600000FCFF7F42B110B50B491046144600F02A
:10407000EFF918B9094810BD0848704707492046AC
:1040800000F0E6F90028F5D02046054900F0E0F9F7
:104090000028EFD0002010BD8C6A0008886A000854
:1040A000546A0008014B93F8280170476C00002007
:1040B000024B0A4601461868FFF7D4BF04000020EF
:1040C000F8B50E460025084C114607461A463046FC
:1040D000256001F08DF9431C00D0F8BD2368002B4A
:1040E000FBD03B60F8BD00BFC402002070B50C4699
:1040F000B1F90E1096B0002916461D4613DB6A462C
:1041000000F0A4FA00280EDB019A4FF4806302F459
:104110007042A2F50052B2FA82F2002052092A60DF
:10412000336016B070BD0022A3892A601B0604D537
:1041300040230020336016B070BD4FF48063002030
:10414000336016B070BD00BF8A890B46920706D552
:10415000012103F1470259611A601A61704770B575
:1041600082B001AB6A460C460646FFF7BFFF0099D6
:1041700005463046FEF744FFB4F90C3070B1164ADC
:104180000099B262019A43F08003A3812060C4E9E0
:1041900004018AB92B43A38102B070BD9A05FBD4F8
:1041A000012123F0030304F1470243F00203A3813A
:1041B000616122602261EFE73046B4F90E1000F031
:1041C00059FA10B9B4F90C30E4E7A38923F00303DA
:1041D00043F001031BB2DDE7E520000810B4034CF7
:1041E000D4F8E440A44610BC604700BF6C00002037
:1041F00082B049B15AB16BB113780B601278101CC0
:1042000018BF012002B0704701A9002AF3D110465F
:1042100002B070476FF00100F4E700BF8842F0B4CD
:104220000DD98B1883420AD9841832B1224613F86B
:10423000014D994202F8014DF9D1F0BC70470F2AA7
:104240000ED80346541E002AF7D001340C44013B1B
:1042500011F8012BA14203F8012FF9D1F0BC7047EE
:1042600040EA01039B073AD1A2F110073F0901F18F
:10427000200606EB071601F1100300F1100453F8B5
:10428000105C103344F8105C53F81C5C103444F894
:104290001C5C53F8185C44F8185C53F8145CB34287
:1042A00044F8145CEBD17B1C1B0112F00C0F194479
:1042B00002F00F05034415D00E46043DAD0803EB94
:1042C000850C1C1F56F8047B44F8047F6445F9D123
:1042D0000135AD002B44294402F00302B2E7541E1D
:1042E0000346B2E72A46ADE7704700BF704700BFFC
:1042F00009B3F8B51446CAB106460D4600F0CCF92C
:10430000A04202D32F463846F8BD21463046FEF77C
:1043100077FE07460028F6D022462946FEF794F895
:1043200030462946FEF718FE3846F8BD2746FEF708
:1043300013FE3846F8BD1146FEF762BEF8B50E46CC
:104340000025084C114607461A463046256001F004
:1043500057F8431C00D0F8BD2368002BFBD03B600E
:10436000F8BD00BFC402002038B50C4609680546F8
:1043700009B1FFF7F9FF21462846BDE83840FEF7AE
:10438000EBBD00BF314B1B6883425AD0426A70B507
:104390000546002A50D0D3689BB10026995941B1F7
:1043A0000C682846FEF7D8FD2146002CF8D16B6A30
:1043B000DB680436802EF1D119462846FEF7CCFD85
:1043C0006A6A116800293DD02846FEF7C5FD696973
:1043D00011B12846FEF7C0FD6A6A1AB11146284697
:1043E000FEF7BAFDA96B11B12846FEF7B5FDE96BE2
:1043F00011B12846FEF7B0FD296C11B12846FEF731
:10440000ABFDE96D11B12846FEF7A6FDA96D11B10E
:104410002846FEF7A1FD696B11B12846FEF79CFD09
:10442000AB696BB1AB6A28469847A96C41B1284685
:10443000BDE87040FFF798BF41690029C9D1D1E7B5
:1044400070BD704769690029C3D1C7E70400002027
:1044500080EA010C1CF0030F37D110F0030C20F0A0
:10446000030021F0030150F8042B08BF51F8043B6E
:104470000ED08CF0030C6FF07F434FEACC0C23FA84
:104480000CFC51F8043B42EA0C0243EA0C0300BF67
:10449000A2F1013C9A4201BF2CEA020C1CF0803FC1
:1044A00050F8042B51F8043BF2D04FEA02604FEA77
:1044B0001222012828BFB0EB036F08BF1B0AF4D0FB
:1044C00003F0FF03000EC01A704710F0030F0AD06C
:1044D00010F8012B11F8013B012A28BF9A42F4D0B1
:1044E000A2EB030070474DF8045D50F8042B01F077
:1044F000030521F0030151F8043B022D26D04DD8CD
:1045000022F07F45B5EB132FA2F1013C2CEA020CFF
:104510000DD11CF0803C08BF51F8043B0AD185EA5C
:104520000205B5EB036F0CD150F8042BE8E74FEA16
:1045300013235BE03CF07F4C54D10B784FEA1265BB
:1045400054E04FEA126503F0FF034FE04FEA0245E3
:10455000A2F1013C4FEA15452CEA020CB5EB134FD2
:1045600018D11CF0803C08BF51F8043B07D185EA04
:104570000205B5EB034F09D150F8042BE6E75FEADB
:104580000C4C2FD10B884FEA12452FE04FEA034322
:104590004FEA12454FEA134328E000BF02F0FF053F
:1045A000B5EB136FA2F1013C2CEA020C0DD11CF00B
:1045B000803C08BF51F8043B0AD185EA0205B5EBFF
:1045C000032F0AD150F8042BE8E74FEA13630DE0FC
:1045D00012F0FF0F06D051F8043B4FEA122523F0EA
:1045E0007F4303E04FF0000020BC704705F0FF025E
:1045F00003F0FF00012828BF904204BF2D0A1B0AC8
:10460000F4D0A2EB000020BC704700BF10B4034CF4
:10461000D4F8E040A44610BC604700BF6C00002006
:1046200019B1FF2A03D80A700121084670478A236E
:104630004FF0FF3103600846704700BF08B5062001
:1046400000F0B8F8012000F0F1FE00BF70B50D4693
:104650000023074C064611462846236000F0A8FEBA
:10466000431C00D070BD2368002BFBD0336070BDAD
:10467000C402002038B50023064C054608462360D6
:1046800000F0A6FE431C00D038BD2368002BFBD0F1
:104690002B6038BDC402002051F8043C181F002BC9
:1046A000BCBF0B58C018704710B580210446FEF7F8
:1046B000A7FC606440B10022031F7C3043F8042F44
:1046C0008342FBD1002010BD4FF0FF3010BD00BF72
:1046D000436C0BB100207047E6E700BF1F2970B59F
:1046E000054608D8436C16460C464BB153F82400D7
:1046F00043F8246070BD16224FF0FF302A6070BD71
:10470000FFF7D2FF08B96B6CF0E74FF0FF3070BDD8
:104710001F2938B5054620D8426C0C466AB152F8BC
:10472000213053B1012B16D0591C10D00025204642
:1047300042F824509847284638BD284600F070F8C3
:10474000224601462846BDE8384000F055B81623F9
:1047500001202B6038BD002038BD16234FF0FF30FC
:104760002B6038BD1F2921D838B5436C05460C464F
:1047700083B153F8242003EB84034AB1511C10D0B9
:10478000012A0CD0002520461D609047284638BDE0
:10479000012038BDFFF788FF28B96B6CE9E70320DB
:1047A00038BD022038BD4FF0FF3038BD4FF0FF302C
:1047B000704700BF024B01461868FFF7A9BF00BF52
:1047C00004000020024B0A4601461868FFF786BF26
:1047D00004000020034B1868436C0BB100207047A5
:1047E00062E700BF04000020024B01461868FFF793
:1047F000B9BF00BF0400002070B50D460023074C70
:10480000064611462846236000F0EAFD431C00D00E
:1048100070BD2368002BFBD0336070BDC402002044
:1048200000F0CEBD70B54FF0FF0C4CF4E06C1CEA0C
:1048300011541DBF1CEA135594EA0C0F95EA0C0F96
:1048400000F0DEF82C4481EA030621EA4C5123EA09
:104850004C5350EA013518BF52EA033541F4801138
:1048600043F4801338D0A0FB02CE4FF00005E1FBEB
:1048700002E506F00042E0FB03E54FF00006E1FB35
:1048800003569CF0000F18BF4EF0010EA4F1FF0478
:10489000B6F5007F64F5407404D25FEA4E0E6D41B8
:1048A00046EB060642EAC62141EA55514FEAC520C9
:1048B00040EA5E504FEACE2EB4F1FD0C88BFBCF545
:1048C000E06F1ED8BEF1004F08BF5FEA500E50F1F6
:1048D000000041EB045170BD06F0004646EA0101BC
:1048E00040EA020081EA0301B4EB5C04C2BFD4EBEE
:1048F0000C0541EA045170BD41F480114FF0000EE7
:10490000013C00F3AB8014F1360FDEBF002001F054
:10491000004170BDC4F10004203C35DA0C341BDCCE
:1049200004F11404C4F1200500FA05F320FA04F0A0
:1049300001FA05F240EA020001F0004221F00041D4
:1049400010EBD37021FA04F642EB06015EEA430E47
:1049500008BF20EAD37070BDC4F10C04C4F1200577
:1049600000FA04F320FA05F001FA04F240EA02002A
:1049700001F0004110EBD37041F100015EEA430EFB
:1049800008BF20EAD37070BDC4F1200500FA05F21B
:104990004EEA020E20FA04F301FA05F243EA02039A
:1049A00021FA04F001F0004121FA04F220EA0200A9
:1049B00000EBD3705EEA430E08BF20EAD37070BDEF
:1049C00094F0000F0FD101F00046400041EB0101CF
:1049D00011F4801F08BF013CF7D041EA060195F0B1
:1049E000000F18BF704703F00046520043EB03036B
:1049F00013F4801F08BF013DF7D043EA0603704758
:104A000094EA0C0F0CEA135518BF95EA0C0F0CD062
:104A100050EA410618BF52EA4306D1D181EA0301A8
:104A200001F000414FF0000070BD50EA410606BFA2
:104A30001046194652EA430619D094EA0C0F02D1E7
:104A400050EA013613D195EA0C0F05D152EA03362C
:104A50001CBF104619460AD181EA030101F000414A
:104A600041F0FE4141F470014FF0000070BD41F093
:104A7000FE4141F4780170BD81F0004102E000BFC9
:104A800083F0004330B54FEA41044FEA430594EA0E
:104A9000050F08BF90EA020F1FBF54EA000C55EA49
:104AA000020C7FEA645C7FEA655C00F0E2804FEA1A
:104AB0005454D4EB5555B8BF6D420CDD2C4480EAFC
:104AC000020281EA030382EA000083EA010180EA2C
:104AD000020281EA0303362D88BF30BD11F0004F7A
:104AE0004FEA01314FF4801C4CEA113102D04042B0
:104AF00061EB410113F0004F4FEA03334CEA1333EB
:104B000002D0524263EB430394EA050F00F0A78002
:104B1000A4F10104D5F1200E0DDB02FA0EFC22FAFD
:104B200005F2801841F1000103FA0EF2801843FAF1
:104B300005F359410EE0A5F120050EF1200E012AE2
:104B400003FA0EFC28BF4CF0020C43FA05F3C01820
:104B500051EBE37101F0004507D54FF0000EDCF199
:104B6000000C7EEB00006EEB0101B1F5801F1BD342
:104B7000B1F5001F0CD349085FEA30004FEA3C0C46
:104B800004F101044FEA445212F5800F80F09A803C
:104B9000BCF1004F08BF5FEA500C50F1000041EB40
:104BA000045141EA050130BD5FEA4C0C404141EB44
:104BB0000101013C28BFB1F5801FE9D291F0000F3F
:104BC00004BF01460020B1FA81F308BF2033A3F1EE
:104BD0000B03B3F120020CDA0C3208DD02F1140CE5
:104BE000C2F10C0201FA0CF021FA02F10CE002F120
:104BF0001402D8BFC2F1200C01FA02F120FA0CFC19
:104C0000DCBF41EA0C019040E41AA2BF01EB045161
:104C1000294330BD6FEA04041F3C1CDA0C340EDC5F
:104C200004F11404C4F1200220FA04F001FA02F3A2
:104C300040EA030021FA04F345EA030130BDC4F160
:104C40000C04C4F1200220FA02F001FA04F340EA55
:104C50000300294630BD21FA04F0294630BD94F006
:104C6000000F83F4801306BF81F480110134013DED
:104C70004EE77FEA645C18BF7FEA655C29D094EA5E
:104C8000050F08BF90EA020F05D054EA000C04BFDC
:104C90001946104630BD91EA030F1EBF00210020C7
:104CA00030BD5FEA545C05D14000494128BF41F066
:104CB000004130BD14F580043CBF01F5801130BDCA
:104CC00001F0004545F0FE4141F470014FF0000055
:104CD00030BD7FEA645C1ABF194610467FEA655C06
:104CE0001CBF0B46024650EA013406BF52EA0335A8
:104CF00091EA030F41F4002130BD00BF90F0000F96
:104D000004BF0021704730B54FF4806404F13204D1
:104D10004FF000054FF0000150E700BF90F0000F8A
:104D200004BF0021704730B54FF4806404F13204B1
:104D300010F0004548BF40424FF000013EE700BF81
:104D400042004FEAE2014FEA31014FEA02701FBF11
:104D500012F07F4393F07F4F81F06051704732F043
:104D60007F4208BF704793F07F4F04BF41F400219A
:104D7000704730B54FF4607401F0004521F00041F8
:104D80001CE700BF50EA010208BF704730B54FF082
:104D900000050AE050EA010208BF704730B511F083
:104DA000004502D5404261EB41014FF4806404F1BB
:104DB00032045FEA915C3FF4D8AE4FF003025FEA41
:104DC000DC0C18BF03325FEADC0C18BF033202EBC5
:104DD000DC02C2F1200300FA03FC20FA02F001FA1F
:104DE00003FE40EA0E0021FA02F11444BDE600BFC2
:104DF00070B54FF0FF0C4CF4E06C1CEA11541DBF71
:104E00001CEA135594EA0C0F95EA0C0F00F0DEF83B
:104E10002C4481EA030621EA4C5123EA4C5350EA20
:104E2000013518BF52EA033541F4801143F4801371
:104E300038D0A0FB02CE4FF00005E1FB02E506F002
:104E40000042E0FB03E54FF00006E1FB03569CF057
:104E5000000F18BF4EF0010EA4F1FF04B6F5007F5D
:104E600064F5407404D25FEA4E0E6D4146EB0606CF
:104E700042EAC62141EA55514FEAC52040EA5E5058
:104E80004FEACE2EB4F1FD0C88BFBCF5E06F1ED802
:104E9000BEF1004F08BF5FEA500E50F1000041EB39
:104EA000045170BD06F0004646EA010140EA0200E6
:104EB00081EA0301B4EB5C04C2BFD4EB0C0541EA08
:104EC000045170BD41F480114FF0000E013C00F31D
:104ED000AB8014F1360FDEBF002001F0004170BD41
:104EE000C4F10004203C35DA0C341BDC04F114045A
:104EF000C4F1200500FA05F320FA04F001FA05F2E6
:104F000040EA020001F0004221F0004110EBD370B2
:104F100021FA04F642EB06015EEA430E08BF20EADE
:104F2000D37070BDC4F10C04C4F1200500FA04F381
:104F300020FA05F001FA04F240EA020001F0004113
:104F400010EBD37041F100015EEA430E08BF20EA86
:104F5000D37070BDC4F1200500FA05F24EEA020ECE
:104F600020FA04F301FA05F243EA020321FA04F0FD
:104F700001F0004121FA04F220EA020000EBD370B4
:104F80005EEA430E08BF20EAD37070BD94F0000FB4
:104F90000FD101F00046400041EB010111F4801FE8
:104FA00008BF013CF7D041EA060195F0000F18BF99
:104FB000704703F00046520043EB030313F4801FD5
:104FC00008BF013DF7D043EA0603704794EA0C0F8F
:104FD0000CEA135518BF95EA0C0F0CD050EA4106A5
:104FE00018BF52EA4306D1D181EA030101F0004122
:104FF0004FF0000070BD50EA410606BF104619464A
:1050000052EA430619D094EA0C0F02D150EA013655
:1050100013D195EA0C0F05D152EA03361CBF104696
:1050200019460AD181EA030101F0004141F0FE4135
:1050300041F470014FF0000070BD41F0FE4141F4B9
:10504000780170BD70B54FF0FF0C4CF4E06C1CEAB9
:1050500011541DBF1CEA135594EA0C0F95EA0C0F6E
:1050600000F0A7F8A4EB050481EA030E52EA033529
:105070004FEA013100F088804FEA03334FF080554A
:1050800045EA131343EA12634FEA022245EA111577
:1050900045EA10654FEA00260EF000419D4208BF28
:1050A000964244F1FD0404F5407402D25B084FEAD5
:1050B0003202B61A65EB03055B084FEA32024FF481
:1050C00080104FF4002CB6EB020E75EB030E22BFDE
:1050D000B61A754640EA0C005B084FEA3202B6EB9E
:1050E000020E75EB030E22BFB61A754640EA5C004D
:1050F0005B084FEA3202B6EB020E75EB030E22BFDD
:10510000B61A754640EA9C005B084FEA3202B6EBDD
:10511000020E75EB030E22BFB61A754640EADC009C
:1051200055EA060E18D04FEA051545EA16754FEAFE
:1051300006164FEAC30343EA52734FEAC2025FEA1C
:105140001C1CC0D111F4801F0BD141EA00014FF0AB
:1051500000004FF0004CB6E711F4801F04BF01437C
:105160000020B4F1FD0C88BFBCF5E06F3FF6AFAE98
:10517000B5EB030C04BFB6EB020C5FEA500C50F128
:10518000000041EB045170BD0EF0004E4EEA1131AB
:1051900014EB5C04C2BFD4EB0C0541EA045170BDB2
:1051A00041F480114FF0000E013C90E645EA060EF6
:1051B0008DE60CEA135594EA0C0F08BF95EA0C0F24
:1051C0003FF43BAF94EA0C0F0AD150EA01347FF46C
:1051D00034AF95EA0C0F7FF425AF104619462CE743
:1051E00095EA0C0F06D152EA03353FF4FDAE1046A6
:1051F000194622E750EA410618BF52EA43067FF4F7
:10520000C5AE50EA41047FF40DAF52EA43057FF486
:10521000EBAE12E74FF0FF3C06E000BF4FF0010C91
:1052200002E000BF4FF0010C4DF804CD4FEA410CF5
:105230007FEA6C5C4FEA430C18BF7FEA6C5C1BD0C2
:1052400001B050EA410C0CBF52EA430C91EA030F43
:1052500002BF90EA020F0020704710F1000F91EAA0
:10526000030F58BF994208BF90422CBFD8176FEA6E
:10527000E37040F0010070474FEA410C7FEA6C5C3C
:1052800002D150EA013C07D14FEA430C7FEA6C5C43
:10529000D6D152EA033CD3D05DF8040B704700BF6F
:1052A0008446104662468C461946634600E000BFBD
:1052B00001B5FFF7B7FF002848BF10F1000F01BD8F
:1052C0004DF808EDFFF7F4FF0CBF012000205DF85A
:1052D00008FB00BF4DF808EDFFF7EAFF34BF0120DF
:1052E00000205DF808FB00BF4DF808EDFFF7E0FF78
:1052F00094BF012000205DF808FB00BF4DF808EDC9
:10530000FFF7CEFF94BF012000205DF808FB00BF2F
:105310004DF808EDFFF7C4FF34BF012000205DF811
:1053200008FB00BF4FEA410C7FEA6C5C02D150EAF7
:10533000013C0AD14FEA430C7FEA6C5C02D152EA8D
:10534000033C02D14FF0000070474FF0010070475E
:105350004FEA410212F5001215D211D56FF478739D
:10536000B3EB625212D94FEAC12343F0004343EA40
:10537000505311F0004F23FA02F018BF404270471B
:105380004FF00000704750EA013005D111F00040A5
:1053900008BF6FF0004070474FF00000704700BF3B
:1053A0005822024B4FF0FF301A607047C4020020B1
:1053B0005822024B4FF0FF301A607047C4020020A1
:1053C0005822024B4FF0FF301A607047C402002091
:1053D0005822024B00201A60704700BFC402002010
:1053E0005822024B4FF0FF301A607047C402002071
:1053F0005822024B4FF0FF301A607047C402002061
:105400005822024B4FF0FF301A607047C402002050
:10541000044A05491368002B08BF0B461844106066
:1054200018467047B8020020C8020020FEE700BFFF
:10543000002380B588B0CDE90033CDE90433CDE950
:105440000233CDE9063301F049F800F087FC00F0A3
:10545000DFFC00F041FD00F0BFFF124C124F134E75
:10546000134D01F09DF8C0B1A27821783846FBF7C2
:10547000E3FC3146A2786846FBF718FD00216A4636
:10548000084600F093FD2946227804A8FBF70EFD9C
:105490000121002004AA00F089FD052000F098FCFD
:1054A000DFE700BFBC0200202C690008406900084B
:1054B0004869000830B400244FF41F053A4B3B4ABA
:1054C000196882B041F001011960596818460A4014
:1054D0005A601A6822F0847222F480321A601A68C4
:1054E00022F480221A605A6822F4FE025A609D60FB
:1054F000009401941A6842F480321A6003E0009B21
:10550000B3F5A06F09D0036803F400330193009B47
:1055100001330093019B002BF1D0234B1B6813F444
:10552000003318BF01230193019B012B06D04FF0DC
:1055300000621F4B9A6002B030BC70471D491A4B85
:1055400008681A4640F010000860086820F0030060
:105550000860086840F0020008605968596059689E
:105560005960596841F480615960596821F47C118F
:105570005960596841F4E8115960196841F0807127
:10558000196013689B01FCD55368074923F0030396
:105590005360536843F0020353604B6803F00C03FD
:1055A000082BFAD1C3E700BF001002400000FFF84B
:1055B00000ED00E000200240114A536803F00C03A4
:1055C000082B0AD00F4B0E4A0F4852680F49C2F3FE
:1055D0000312825CD3400B60704753685168C3F379
:1055E0008343C90303F1020306D55268920303D42F
:1055F000044A02FB03F3E6E7054A02FB03F3E2E792
:105600000010024000127A00D8010020E8010020BA
:1056100000093D004FF41F000C4B0D4A196841F082
:105620000101196059680A405A601A6822F08472B0
:1056300022F480321A601A6822F480221A605A68B2
:1056400022F4FE025A609860704700BF00100240CA
:105650000000FFF80C4BB0F5803F1A6822F480324E
:105660001A601A6822F480221A6008D0B0F5802FE0
:1056700004D11A6842F4A0221A60704770471A6871
:1056800042F480321A60704700100240002382B05A
:105690000949019300E04AB90A68019B02F400320B
:1056A00001330193019BB3F5A06FF4D1024B18684D
:1056B000C0F3404002B0704700100240034A136834
:1056C00023F0F80343EAC003136070470010024060
:1056D000014B1860704700BF00004242034A536804
:1056E00023F47C130B4303435360704700100240C4
:1056F000014B1860704700BF60004242034A536884
:1057000023F0030303435360704700BF00100240BF
:10571000024B586800F00C00704700BF00100240B8
:10572000034A536823F0F00303435360704700BFFC
:1057300000100240034A536823F4E06303435360BC
:10574000704700BF00100240034A536823F46053BF
:1057500043EAC0035360704700100240044A1378C4
:1057600011B118431070704723EA000010707047A1
:1057700009100240014B1860704700BFD800424238
:10578000034A536823F4404303435360704700BF08
:10579000001002400022064B01281A701A7005D032
:1057A000042802D105221A7070477047187070479C
:1057B00020100240014B1860704700BF8004424235
:1057C000024A136A03431362704700BF001002408D
:1057D000014B1860704700BF3C0442421E4A30B47F
:1057E000536803F00C03082B20D01C4B03601A4AAB
:1057F0001B4C51681B4DC1F30311615CCB404360EE
:105800005168C1F30221615C23FA01F181605168A2
:10581000C1F3C221615CCB40C3605268C2F38132E4
:10582000AA5C30BCB3FBF2F3036170475368516864
:10583000C3F38343C90303F1020307D552689203FC
:1058400004D4064A02FB03F30360D0E7064A02FBD6
:1058500003F30360CBE700BF0010024000127A00A0
:10586000F0010020EC01002000093D00044A5369CA
:1058700011B118435061704723EA0000506170472E
:1058800000100240044A936911B1184390617047B7
:1058900023EA00009061704700100240044AD36977
:1058A00011B11843D061704723EA0000D0617047FE
:1058B00000100240044AD36811B11843D060704709
:1058C00023EA0000D060704700100240044A1369C8
:1058D00011B118431061704723EA0000106170474E
:1058E00000100240014B1860704700BF4004424264
:1058F000014B1860704700BF4C004242014B1870CA
:10590000704700BF071002404309012B0BD0022B48
:10591000094B00F01F000CBF1B6A5B6A23FA00F002
:1059200000F001007047044B00F01F001B6823FAD1
:1059300000F000F00100704700100240024A536A74
:1059400043F080735362704700100240034B9B6822
:10595000184214BF01200020704700BF0010024011
:10596000014B1870704700BF0A10024008B52F4B5A
:1059700098421CD02E4B984223D02E4B98422AD0CE
:105980002D4B984209D02D4B98422ED02C4B98424B
:1059900035D02C4B98423CD008BD01212020FFF788
:1059A00089FFBDE8084000212020FFF783BF0121C7
:1059B0000420FFF77FFFBDE8084000210420FFF727
:1059C00079BF01210820FFF775FFBDE808400021DD
:1059D0000820FFF76FBF01211020FFF76BFFBDE824
:1059E000084000211020FFF765BF01214020FFF78C
:1059F00061FFBDE8084000214020FFF75BBF0121A7
:105A00008020FFF757FFBDE8084000218020FFF706
:105A100051BF01214FF48070FFF74CFFBDE80840F3
:105A200000214FF48070FFF745BF00BF0008014020
:105A3000000C01400010014000140140001801401A
:105A4000001C014000200140012108B50846FFF775
:105A500031FFBDE8084000210120FFF72BBF00BF48
:105A60002DE9F041CD780A88EB0648BF8B7805F028
:105A70000F0748BF1F4312F0FF0F21D000234FF044
:105A8000010C4FF00F08066802E00133082B16D016
:105A90000CFA03F131EA0204F7D19C0008FA04FE83
:105AA00026EA0E0607FA04F4282D46EA040634D046
:105AB000482D03F1010308BF0161082BE8D10660FE
:105AC000FF2A26D908234FF0010C0CFA03F434EA1C
:105AD00002014FF00F08466807D00133102B17D092
